:020000040000FA
:100000000C9453000C947B000C947B000C94A8037C
:100010000C947B000C947B000C947B000C947B0074
:100020000C947B000C947B000C947B000C947B0064
:100030000C947B000C947B000C947B000C947B0054
:100040000C9406030C947B000C9476030C945003E0
:100050000C947B000C947B000C947B000C94EC03C0
:100060000C947B000C947B0000000000250028000D
:100070002B0000000000240027002A0004040404D0
:100080000404040402020202020203030303030342
:10009000010204081020408001020408102001021F
:1000A00004081020620711241FBECFEFD8E0DEBF86
:1000B000CDBF11E0A0E0B1E0E8E2F0E102C00590C0
:1000C0000D92A631B107D9F721E0A6E1B1E001C058
:1000D0001D92A63DB207E1F710E0C3E5D0E004C0F1
:1000E0002197FE010E940C08C235D107C9F70E9472
:1000F00041040C9412080C94000088E08BB944E68B
:1001000050E072E023EC30E08BE193E064E075B9FD
:10011000F9013197F1F715B8FC013197F1F765B99D
:10012000F9013197F1F715B8FC013197F1F775B97D
:10013000F9013197F1F715B8FC013197F1F765B97D
:10014000F9013197F1F715B8FC013197F1F74150FA
:100150005109E9F61BB815B8089588E08BB964E633
:1001600070E042E023EC30E083E592E045B9F9012C
:100170003197F1F715B8FC013197F1F745B9F9015D
:100180003197F1F715B8FC013197F1F745B9F9014D
:100190003197F1F715B8FC013197F1F745B9F9013D
:1001A0003197F1F715B8FC013197F1F745B9F9012D
:1001B0003197F1F715B8FC013197F1F761507109EA
:1001C00009F0D4CF1BB815B808953FB7F8948091C3
:1001D000D2019091D301A091D401B091D50126B55F
:1001E000A89B05C02F3F19F00196A11DB11D3FBF6F
:1001F000BA2FA92F982F8827BC01CD01620F711D3E
:10020000811D911D42E0660F771F881F991F4A9537
:10021000D1F708958F929F92AF92BF92CF92DF92C3
:10022000EF92FF924B015C010E94E5006B017C01A3
:100230000E94E5006C197D098E099F09683E734094
:1002400081059105A8F321E0821A9108A108B1085F
:1002500088EEC80E83E0D81EE11CF11C81149104C5
:10026000A104B10429F7FF90EF90DF90CF90BF90E9
:10027000AF909F908F900895AF92BF92CF92DF92F0
:10028000EF92FF920F931F93CF93DF936C017B014B
:100290008B01040F151FEB015E01AE18BF08C017DC
:1002A000D10759F06991D601ED91FC910190F0814F
:1002B000E02DC6010995892B79F7C501DF91CF9112
:1002C0001F910F91FF90EF90DF90CF90BF90AF9074
:1002D0000895FC01538D448D252F30E0842F90E04C
:1002E000821B930B541710F0CF9608950197089531
:1002F000FC01918D828D981761F0A28DAE0FBF2FFA
:10030000B11D5D968C91928D9F5F9F73928F90E04F
:1003100008958FEF9FEF0895FC01918D828D9817BE
:1003200031F0828DE80FF11D858D90E008958FEFFB
:100330009FEF0895FC01918D228D892F90E0805CC4
:100340009F4F821B91098F739927089582E291E054
:100350000E949A0121E0892B09F420E0822F089560
:1003600080E090E0892B29F00E94A60181110C9475
:1003700000000895FC01A48DA80FB92FB11DA35A48
:10038000BF4F2C91848D90E001968F739927848FB5
:10039000A689B7892C93A089B1898C9183708064D8
:1003A0008C93938D848D981306C00288F389E02D79
:1003B00080818F7D80830895EF92FF920F931F932A
:1003C000CF93DF93EC0181E0888F9B8D8C8D981308
:1003D0001AC0E889F989808185FF15C09FB7F89414
:1003E000EE89FF896083E889F98980818370806460
:1003F00080839FBF81E090E0DF91CF911F910F91AB
:10040000FF90EF900895F62E0B8D10E00F5F1F4FB9
:100410000F731127E02E8C8D8E110CC00FB607FCC8
:10042000FACFE889F989808185FFF5CFCE010E9456
:10043000BA01F1CFEB8DEC0FFD2FF11DE35AFF4F09
:10044000F0829FB7F8940B8FEA89FB8980818062E4
:10045000CFCFCF93DF93EC01888D8823B9F0AA89A1
:10046000BB89E889F9898C9185FD03C0808186FD6F
:100470000DC00FB607FCF7CF8C9185FFF2CF8081BE
:1004800085FFEDCFCE010E94BA01E9CFDF91CF9178
:1004900008958091C301823079F128F4882359F0BE
:1004A0008130D9F00895843009F446C0A0F1853038
:1004B00009F450C0089580E18BB91092B00081E832
:1004C0008093800010927A0080E480937B001092E9
:1004D0007C0080B7836080BF089598E09BB910923C
:1004E000B00091E89093800010927A0090E490938D
:1004F0007B0080937C001DC098E09BB91092B000F7
:1005000091E29093800010927A0090E490937B00A7
:1005100080937C00DECF80E28BB91092B00081E244
:100520008093800010927A0080E480937B00109288
:100530007C0080B78E7FCFCF80E28BB91092800095
:1005400081E88093B00010927A0080E480937B0071
:1005500081E0DECF80E18BB91092800081E880934A
:10056000B00010927A0080E480937B0082E0C1CFDB
:1005700028E02BB930E020E0B2E063EC70E043E02B
:1005800057E0A4E0B5B9FB013197F1F715B8FA01CE
:100590003197F1F7A5B9FB013197F1F715B8FA01D9
:1005A0003197F1F72F5F3F4F8217930759F71BB829
:1005B00015B808950F931F93CF93DF93EC018B0130
:1005C000FB0160810E949707F8016181CE010196CD
:1005D0000E94970782E090E0DF91CF911F910F91E9
:1005E00008950F931F93CF93DF938C01EB010E942B
:1005F0008F078883C80101960E948F07898382E054
:1006000090E0DF91CF911F910F9108951F920F926B
:100610000FB60F9211242F933F938F939F93AF9315
:10062000BF938091CE019091CF01A091D001B09164
:10063000D1013091CD0123E0230F2D3758F50196DC
:10064000A11DB11D2093CD018093CE019093CF01C8
:10065000A093D001B093D1018091D2019091D301A8
:10066000A091D401B091D5010196A11DB11D809337
:10067000D2019093D301A093D401B093D501BF913F
:10068000AF919F918F913F912F910F900FBE0F903F
:100690001F90189526E8230F0296A11DB11DD2CFF9
:1006A0001F920F920FB60F9211242F933F934F93E7
:1006B0005F936F937F938F939F93AF93BF93EF93CA
:1006C000FF9382E291E00E94BA01FF91EF91BF9106
:1006D000AF919F918F917F916F915F914F913F91DA
:1006E0002F910F900FBE0F901F9018951F920F9291
:1006F0000FB60F9211242F938F939F93EF93FF9335
:10070000E0913201F09133018081E0913801F09164
:10071000390182FD1BC0908180913B018F5F8F73F7
:1007200020913C01821741F0E0913B01F0E0EE5D49
:10073000FE4F958F80933B01FF91EF919F918F9199
:100740002F910F900FBE0F901F9018958081F4CFBE
:100750001F920F920FB60F9211242F933F934F9336
:100760005F936F937F938F939F93AF93BF93EF9319
:10077000FF930E94E50020911A01189B1EC02111D1
:100780000BC021E020931A016093160170931701AA
:100790008093180190931901FF91EF91BF91AF9150
:1007A0009F918F917F916F915F914F913F912F9189
:1007B0000F900FBE0F901F901895213069F710927F
:1007C0001A012091160130911701621B730B70936F
:1007D000CC016093CB01E0CF1F920F920FB60F9226
:1007E00011242F933F934F935F936F937F938F9336
:1007F0009F93AF93BF93CF93EF93FF931092C50155
:100800001092C401C091C3014C2F41702091C401CA
:100810003091C5012A303105C8F4442351F000B6A7
:1008200005FC0AC0215031093093C5012093C40151
:1008300003C000B605FCF6CF8091C4019091C501BC
:1008400001969093C5018093C401E0CF0E944902B4
:1008500081E08C0F66E00E9400089093C301FF9135
:10086000EF91CF91BF91AF919F918F917F916F91B8
:100870005F914F913F912F910F900FBE0F901F905E
:100880001895789484B5826084BD84B5816084BDF8
:1008900085B5826085BD85B5816085BD80916E001E
:1008A000816080936E00109281008091810082604F
:1008B000809381008091810081608093810080918C
:1008C00080008160809380008091B100846080937B
:1008D000B1008091B00081608093B00080917A0077
:1008E000846080937A0080917A00826080937A009D
:1008F00080917A00816080937A0080917A0080688C
:1009000080937A001092C100E5E9F0E02491E1E8DB
:10091000F0E08491882399F090E0880F991FFC0102
:10092000EE58FF4FA591B491FC01E859FF4F859116
:1009300094918FB7F894EC91E22BEC938FBF81E008
:1009400090E00E948F07813089F062E071E082E0E0
:1009500090E00E94DA0260E071E087E090E00E949F
:10096000DA0261E081E090E00E949707E0913201B5
:10097000F091330182E08083E0912E01F0912F010C
:100980001082E0913001F09131018FEC8083109260
:100990003A01E0913601F091370186E08083E091E1
:1009A0003401F0913501808180618083E0913401D0
:1009B000F0913501808188608083E0913401F0916D
:1009C0003501808180688083E0913401F0913501A8
:1009D00080818F7D80838AB188638AB91BB884B196
:1009E0008E6084B985B1817385B910928000C1E0B1
:1009F000C09381001092B000C093B10080E180BF2D
:100A00008091680081608093680080916B008160B4
:100A100080936B0068EC70E080E090E00E940A0137
:100A200080910201909103018D589F4F2091CB013D
:100A30003091CC01821793070CF0AEC01092CA011E
:100A4000C4E6D0E011E0809121018111D9C08FB7B7
:100A5000F8944091CE015091CF016091D0017091F6
:100A6000D1018FBF8091BF019091C001A091C101C0
:100A7000B091C201481B590B6A0B7B0B443F51409C
:100A800061057105C0F0D0938900C09388008C5037
:100A90009E4FAF4FBF4F8093BF019093C001A09373
:100AA000C101B093C2011092B0001092800084E6A0
:100AB00090E00E94B8028091CB019091CC012091EE
:100AC0001F01309120012817390724F49093200149
:100AD00080931F01803B44E094070CF058C02091A4
:100AE0001D0130911E01293E33400CF440C090930B
:100AF0001C0180931B016BE171E082E090E00E9499
:100B0000DA026FE171E087E090E00E94DA02109370
:100B1000CA01109321011092B0001092800080E968
:100B200091E00E94B80268EC70E080E090E00E94E2
:100B30000A011092B0001092800084E690E00E94BA
:100B4000B80264E670E080E090E00E940A010E9432
:100B50007D0064E670E080E090E00E940A010E945F
:100B6000AD0064E670E080E090E00E940A018091B0
:100B70001D0190911E01019690931E0180931D010D
:100B800061E070E080E090E00E940A015CCF10928A
:100B90001E0110921D0157CF84E690E090938900CA
:100BA00080938800C093CA011092B0001092800018
:100BB00080E991E00E94B80268EC70E080E090E08B
:100BC0000E940A011092B0001092800084E690E02A
:100BD0000E94B80264E670E080E090E00E940A01A2
:100BE0000E947D0064E670E080E090E00E940A01CF
:100BF0000E94AD0064E670E080E090E00E940A018F
:100C0000109289001092880062E071E082E090E02A
:100C10000E94F10260E071E087E090E00E94F10242
:100C2000C3E2D0E053E2452E66E0562E04E610E023
:100C300070EDE72E77E0F72E7724739440E0C42E12
:100C400040E0D42E30E1632E8091020190910301A7
:100C50008D589F4F2091CB013091CC018217930783
:100C600064F48091CA01882341F07092C901109206
:100C7000C8011092C7011092C6018091C901882352
:100C800009F4A4C0D0938900C0938800D0938B004E
:100C9000C0938A004092B300F092C501E092C40173
:100CA000A090C401B090C50185EFA81681E0B806F8
:100CB000D0F0C501880F991F880F991F05970197DC
:100CC000F1F70E9449028091C3018F5F652D0E9458
:100CD00000089093C3012AE0A21AB108B092C5019E
:100CE000A092C401DDCF80B7886080BF8091C90128
:100CF000882309F46BC02091CB013091CC01809006
:100D0000020190900301E0910001F091010128158A
:100D100039050CF459C0E217F3070CF49F01309326
:100D2000CC012093CB01092C000CAA08BB08032E90
:100D3000000C440B550B281939094A095B09ACED25
:100D4000B0E00E94C4079F01FF0F440B550B281908
:100D500039094A095B090E94A5072D5D233208F471
:100D600023E2822F90E090938900809388009093F3
:100D70008B0080938A002093B300809102019091B0
:100D800003014D962091CB013091CC01821793073E
:100D90000CF4ACCF8091C6019091C701813197428C
:100DA0004CF01092C9011092C7011092C6011BB8F5
:100DB000109280008091C6019091C7010196909396
:100DC000C7018093C60192CF9401A9CF8091C90138
:100DD000811164C08FB7F8944091CE015091CF013A
:100DE0006091D0017091D1018FBF8091BF0190912E
:100DF000C001A091C101B091C2014A015B01881AF2
:100E0000990AAA0ABB0A20EA82162FE09206A104D8
:100E1000B10490F02091C80121110EC08056904F6E
:100E2000AF4FBF4F8093BF019093C001A093C1010A
:100E3000B093C2017092C8018091C8018823D1F19A
:100E40008091BF019091C001A091C101B091C201F8
:100E5000481B590B6A0B7B0B403D574061057105E0
:100E6000E8F08053984FAF4FBF4F8093BF019093EE
:100E7000C001A093C101B093C20160BE1092B00046
:100E8000109280001BB885B1817385B910938900D9
:100E90000093880084E690E00E94B802C114D10457
:100EA00009F4D2CE0E94A601882309F4CBCE0E9479
:100EB0000000C2CE60BE1092B000109280001BB83D
:100EC00015B8ECCFE2E2F1E01382128288EE93E0F3
:100ED000A0E0B0E084839583A683B78388E091E0A7
:100EE0009183808385EC90E09587848784EC90E003
:100EF0009787868780EC90E0918B808B81EC90E0E7
:100F0000938B828B82EC90E0958B848B86EC90E0C7
:100F1000978B868B118E128E138E148E0895F999ED
:100F2000FECF92BD81BDF89A992780B50895262FEE
:100F3000F999FECF1FBA92BD81BD20BD0FB6F894BE
:100F4000FA9AF99A0FBE01960895052E97FB1EF4A2
:100F500000940E94BC0757FD07D00E94CF0707FCF2
:100F600003D04EF40C94BC075095409530952195D4
:100F70003F4F4F4F5F4F08959095809570956195C5
:100F80007F4F8F4F9F4F08950E94F107A59F900DAF
:100F9000B49F900DA49F800D911D11240895A1E28E
:100FA0001A2EAA1BBB1BFD010DC0AA1FBB1FEE1FE3
:100FB000FF1FA217B307E407F50720F0A21BB30B2E
:100FC000E40BF50B661F771F881F991F1A9469F7AA
:100FD00060957095809590959B01AC01BD01CF0106
:100FE0000895A29FB001B39FC001A39F700D811D02
:100FF0001124911DB29F700D811D1124911D089522
:10100000991B79E004C0991F961708F0961B881F5A
:101010007A95C9F780950895EE0FFF1F0590F4911A
:10102000E02D0994F894FFCFD007E80300000000FA
:0E103000DC013C01690129029A0178018C0162
:107E0000112484B714BE81FFF0D085E080938100F7
:107E100082E08093C00088E18093C10086E0809377
:107E2000C20080E18093C4008EE0C9D0259A86E02C
:107E300020E33CEF91E0309385002093840096BBD3
:107E4000B09BFECF1D9AA8958150A9F7CC24DD24C4
:107E500088248394B5E0AB2EA1E19A2EF3E0BF2EE7
:107E6000A2D0813461F49FD0082FAFD0023811F036
:107E7000013811F484E001C083E08DD089C08234E0
:107E800011F484E103C0853419F485E0A6D080C0E4
:107E9000853579F488D0E82EFF2485D0082F10E0AE
:107EA000102F00270E291F29000F111F8ED06801E7
:107EB0006FC0863521F484E090D080E0DECF843638
:107EC00009F040C070D06FD0082F6DD080E0C81688
:107ED00080E7D80618F4F601B7BEE895C0E0D1E017
:107EE00062D089930C17E1F7F0E0CF16F0E7DF06D8
:107EF00018F0F601B7BEE89568D007B600FCFDCFD4
:107F0000A601A0E0B1E02C9130E011968C91119780
:107F100090E0982F8827822B932B1296FA010C0160
:107F200087BEE89511244E5F5F4FF1E0A038BF0790
:107F300051F7F601A7BEE89507B600FCFDCF97BE46
:107F4000E89526C08437B1F42ED02DD0F82E2BD052
:107F50003CD0F601EF2C8F010F5F1F4F84911BD097
:107F6000EA94F801C1F70894C11CD11CFA94CF0C13
:107F7000D11C0EC0853739F428D08EE10CD085E9AC
:107F80000AD08FE07ACF813511F488E018D01DD067
:107F900080E101D065CF982F8091C00085FFFCCF94
:107FA0009093C60008958091C00087FFFCCF809118
:107FB000C00084FD01C0A8958091C6000895E0E648
:107FC000F0E098E1908380830895EDDF803219F02E
:107FD00088E0F5DFFFCF84E1DECF1F93182FE3DFCA
:107FE0001150E9F7F2DF1F91089580E0E8DFEE27F6
:047FF000FF270994CA
:027FFE00040479
:00000001FF
