:100000000C9453000C947B000C947B000C941A0409
:100010000C947B000C947B000C947B000C947B0074
:100020000C947B000C947B000C947B000C947B0064
:100030000C947B000C947B000C947B000C947B0054
:100040000C9478030C947B000C94E8030C94C2038A
:100050000C947B000C947B000C947B000C945E044D
:100060000C947B000C947B0000000000250028000D
:100070002B0000000000240027002A0004040404D0
:100080000404040402020202020203030303030342
:10009000010204081020408001020408102001021F
:1000A000040810200E0811241FBECFEFD8E0DEBFD9
:1000B000CDBF11E0A0E0B1E0E0E8F1E102C00590C1
:1000C0000D92AE31B107D9F721E0AEE1B1E001C048
:1000D0001D92AF3DB207E1F710E0C3E5D0E004C0E8
:1000E0002197FE010E94B808C235D107C9F70E94C6
:1000F000B3040C94BE080C94000088E08BB944E66D
:1001000050E072E023EC30E08BE193E064E075B9FD
:10011000F9013197F1F715B8FC013197F1F765B99D
:10012000F9013197F1F715B8FC013197F1F775B97D
:10013000F9013197F1F715B8FC013197F1F765B97D
:10014000F9013197F1F715B8FC013197F1F74150FA
:100150005109E9F61BB815B8089588E08BB964E633
:1001600070E042E023EC30E083E592E045B9F9012C
:100170003197F1F715B8FC013197F1F745B9F9015D
:100180003197F1F715B8FC013197F1F745B9F9014D
:100190003197F1F715B8FC013197F1F745B9F9013D
:1001A0003197F1F715B8FC013197F1F745B9F9012D
:1001B0003197F1F715B8FC013197F1F761507109EA
:1001C00009F0D4CF1BB815B808953FB7F8948091C3
:1001D0003E0190913F01A0914001B091410126B5AF
:1001E000A89B05C02F3F19F00196A11DB11D3FBF6F
:1001F000BA2FA92F982F8827BC01CD01620F711D3E
:10020000811D911D42E0660F771F881F991F4A9537
:10021000D1F708958F929F92AF92BF92CF92DF92C3
:10022000EF92FF924B015C010E94E5006B017C01A3
:100230000E94E5006C197D098E099F09683E734094
:1002400081059105A8F321E0821A9108A108B1085F
:1002500088EEC80E83E0D81EE11CF11C81149104C5
:10026000A104B10429F7FF90EF90DF90CF90BF90E9
:10027000AF909F908F900895AF92BF92CF92DF92F0
:10028000EF92FF920F931F93CF93DF936C017B014B
:100290008B01040F151FEB015E01AE18BF08C017DC
:1002A000D10759F06991D601ED91FC910190F0814F
:1002B000E02DC6010995892B79F7C501DF91CF9112
:1002C0001F910F91FF90EF90DF90CF90BF90AF9074
:1002D0000895FC01538D448D252F30E0842F90E04C
:1002E000821B930B541710F0CF9608950197089531
:1002F000FC01918D828D981761F0A28DAE0FBF2FFA
:10030000B11D5D968C91928D9F5F9F73928F90E04F
:1003100008958FEF9FEF0895FC01918D828D9817BE
:1003200031F0828DE80FF11D858D90E008958FEFFB
:100330009FEF0895FC01918D228D892F90E0805CC4
:100340009F4F821B91098F739927089582E491E052
:100350000E949A0121E0892B09F420E0822F089560
:1003600080E090E0892B29F00E94A60181110C9475
:1003700000000895FC01A48DA80FB92FB11DA35A48
:10038000BF4F2C91848D90E001968F739927848FB5
:10039000A689B7892C93A089B1898C9183708064D8
:1003A0008C93938D848D981306C00288F389E02D79
:1003B00080818F7D80830895EF92FF920F931F932A
:1003C000CF93DF93EC0181E0888F9B8D8C8D981308
:1003D0001AC0E889F989808185FF15C09FB7F89414
:1003E000EE89FF896083E889F98980818370806460
:1003F00080839FBF81E090E0DF91CF911F910F91AB
:10040000FF90EF900895F62E0B8D10E00F5F1F4FB9
:100410000F731127E02E8C8D8E110CC00FB607FCC8
:10042000FACFE889F989808185FFF5CFCE010E9456
:10043000BA01F1CFEB8DEC0FFD2FF11DE35AFF4F09
:10044000F0829FB7F8940B8FEA89FB8980818062E4
:10045000CFCFCF93DF93EC01888D8823B9F0AA89A1
:10046000BB89E889F9898C9185FD03C0808186FD6F
:100470000DC00FB607FCF7CF8C9185FFF2CF8081BE
:1004800085FFEDCFCE010E94BA01E9CFDF91CF9178
:10049000089580912F01823079F128F4882359F052
:1004A0008130D9F00895843009F446C0A0F1853038
:1004B00009F450C0089580E18BB91092B00081E832
:1004C0008093800010927A0080E480937B001092E9
:1004D0007C0080B7836080BF089598E09BB910923C
:1004E000B00091E89093800010927A0090E490938D
:1004F0007B0080937C001DC098E09BB91092B000F7
:1005000091E29093800010927A0090E490937B00A7
:1005100080937C00DECF80E28BB91092B00081E244
:100520008093800010927A0080E480937B00109288
:100530007C0080B78E7FCFCF80E28BB91092800095
:1005400081E88093B00010927A0080E480937B0071
:1005500081E0DECF80E18BB91092800081E880934A
:10056000B00010927A0080E480937B0082E0C1CFDB
:1005700028E02BB930E020E0B2E063EC70E043E02B
:1005800057E0A4E0B5B9FB013197F1F715B8FA01CE
:100590003197F1F7A5B9FB013197F1F715B8FA01D9
:1005A0003197F1F72F5F3F4F8217930759F71BB829
:1005B00015B80895FC0101900020E9F73197AF01CB
:1005C000481B590BBC0182E491E00C943C018F92D2
:1005D0009F92AF92BF920F931F93CF93DF93CDB7AC
:1005E000DEB7A1970FB6F894DEBF0FBECDBF19A23C
:1005F000423008F44AE08E010F5D1F4F842E912C8B
:10060000B12CA12CA50194010E947B08E62FB90111
:10061000CA01EA30F4F4E05DD801EE938D01232B9A
:10062000242B252B79F790E080E0109719F0CD016D
:100630000E94DA02A1960FB6F894DEBF0FBECDBFBE
:10064000DF91CF911F910F91BF90AF909F908F90AE
:100650000895E95CE1CFCF92DF92EF92FF92CF93C2
:10066000DF936B017C016DE282E491E00E94DC018A
:10067000EC0166277727CB016C197D098E099F094C
:100680004AE00E94E7028C0F9D1FDF91CF91FF90FF
:10069000EF90DF90CF9008950F931F93CF93DF9348
:1006A000EC018B01FB0160810E944308F80161812C
:1006B000CE0101960E94430882E090E0DF91CF9145
:1006C0001F910F9108950F931F93CF93DF938C0188
:1006D000EB010E943B088883C80101960E943B08F9
:1006E000898382E090E0DF91CF911F910F9108956F
:1006F0001F920F920FB60F9211242F933F938F9357
:100700009F93AF93BF9380913A0190913B01A09149
:100710003C01B0913D013091390123E0230F2D3789
:1007200058F50196A11DB11D2093390180933A011E
:1007300090933B01A0933C01B0933D0180913E0119
:1007400090913F01A0914001B09141010196A11DFE
:10075000B11D80933E0190933F01A0934001B0935F
:100760004101BF91AF919F918F913F912F910F9038
:100770000FBE0F901F90189526E8230F0296A11D1B
:10078000B11DD2CF1F920F920FB60F9211242F934B
:100790003F934F935F936F937F938F939F93AF9309
:1007A000BF93EF93FF9382E491E00E94BA01FF911F
:1007B000EF91BF91AF919F918F917F916F915F91D9
:1007C0004F913F912F910F900FBE0F901F90189552
:1007D0001F920F920FB60F9211242F938F939F9316
:1007E000EF93FF93E0915201F09153018081E091EA
:1007F0005801F091590182FD1BC0908180915B01ED
:100800008F5F8F7320915C01821741F0E0915B0153
:10081000F0E0EE5BFE4F958F80935B01FF91EF91CF
:100820009F918F912F910F900FBE0F901F90189551
:100830008081F4CF1F920F920FB60F9211242F9345
:100840003F934F935F936F937F938F939F93AF9358
:10085000BF93EF93FF930E94E50020912201189B24
:100860001EC021110BC021E02093220160931E01C4
:1008700070931F018093200190932101FF91EF91CC
:10088000BF91AF919F918F917F916F915F914F91A8
:100890003F912F910F900FBE0F901F901895213010
:1008A00069F71092220120911E0130911F01621BF5
:1008B000730B7093380160933701E0CF1F920F9252
:1008C0000FB60F9211242F933F934F935F936F9323
:1008D0007F938F939F93AF93BF93CF93EF93FF93A8
:1008E0001092310110923001C0912F014C2F4170B4
:1008F00020913001309131012A303105C8F4442370
:1009000051F000B605FC0AC0215031093093310185
:100910002093300103C000B605FCF6CF8091300172
:100920009091310101969093310180933001E0CF95
:100930000E94490281E08C0F66E00E94AC0890930F
:100940002F01FF91EF91CF91BF91AF919F918F9127
:100950007F916F915F914F913F912F910F900FBEBB
:100960000F901F901895789484B5826084BD84B5EB
:10097000816084BD85B5826085BD85B5816085BD9A
:1009800080916E00816080936E0010928100809152
:1009900081008260809381008091810081608093DA
:1009A0008100809180008160809380008091B100FF
:1009B00084608093B1008091B00081608093B0002A
:1009C00080917A00846080937A0080917A008260BE
:1009D00080937A0080917A00816080937A00809180
:1009E0007A00806880937A001092C100E5E9F0E017
:1009F0002491E1E8F0E08491882399F090E0880F59
:100A0000991FFC01EE58FF4FA591B491FC01E859E4
:100A1000FF4F859194918FB7F894EC91E22BEC9372
:100A20008FBF81E090E00E943B08813089F062E056
:100A300071E082E090E00E944C0360E071E087E0AA
:100A400090E00E944C0361E081E090E00E94430846
:100A5000E0915201F091530182E08083E0914E01D8
:100A6000F0914F011082E0915001F09151018FEC13
:100A7000808310925A01E0915601F091570186E06F
:100A80008083E0915401F0915501808180618083E1
:100A9000E0915401F0915501808188608083E0915C
:100AA0005401F0915501808180688083E091540168
:100AB000F091550180818F7D80838AB188638AB9E6
:100AC0001BB884B18E6084B985B1817385B91092E9
:100AD0008000C1E0C09381001092B000C093B100CB
:100AE00080E180BF80916800816080936800809180
:100AF0006B00816080936B0068EC70E080E090E0B8
:100B00000E940A0180910201909103018D589F4F2C
:100B10002091370130913801821793070CF0AEC055
:100B200010923601C4E6D0E011E0809129018111D4
:100B3000D9C08FB7F89440913A0150913B01609130
:100B40003C0170913D018FBF80912A0190912B0152
:100B5000A0912C01B0912D01481B590B6A0B7B0B06
:100B6000443F514061057105C0F0D0938900C093A6
:100B700088008C509E4FAF4FBF4F80932A019093B7
:100B80002B01A0932C01B0932D011092B000109274
:100B9000800084E690E00E94B80280913701909135
:100BA000380120912701309128012817390724F4B2
:100BB0009093280180932701803B44E094070CF038
:100BC00058C02091250130912601293E33400CF474
:100BD00040C0909324018093230163E271E082E09E
:100BE00090E00E944C0367E271E087E090E00E9491
:100BF0004C0310933601109329011092B00010920B
:100C0000800080E991E00E94B80268EC70E080E02A
:100C100090E00E940A011092B0001092800084E6D9
:100C200090E00E94B80264E670E080E090E00E94EC
:100C30000A010E947D0064E670E080E090E00E947E
:100C40000A010E94AD0064E670E080E090E00E943E
:100C50000A01809125019091260101969093260129
:100C60008093250161E070E080E090E00E940A013D
:100C70005CCF109226011092250157CF84E690E0B8
:100C80009093890080938800C09336011092B00041
:100C90001092800080E991E00E94B80268EC70E058
:100CA00080E090E00E940A011092B0001092800053
:100CB00084E690E00E94B80264E670E080E090E094
:100CC0000E940A010E947D0064E670E080E090E0EE
:100CD0000E940A010E94AD0064E670E080E090E0AE
:100CE0000E940A01109289001092880062E071E06F
:100CF00082E090E00E94630360E071E087E090E0B2
:100D00000E946303C3E2D0E066E0362E74E6E72E6D
:100D1000F12C00E010E077247394E0EDCE2EE7E0B4
:100D2000DE2E43E2442E53E2552E30E1632E8091B5
:100D30000201909103018D589F4F2091370130910E
:100D400038018217930764F480913601882341F0BB
:100D500070923501109234011092330110923201D9
:100D600080913501882309F4DDC0D0938900C093B8
:100D70008800D0938B00C0938A004092B300D09239
:100D80003101C0923001A0903001B090310185EF67
:100D9000A81681E0B806D0F0C501880F991F880F0A
:100DA000991F05970197F1F70E94490280912F0141
:100DB0008F5F632D0E94AC0890932F012AE0A21A46
:100DC000B108B0923101A0923001DDCF50922E01D6
:100DD00080B7886080BF80913501882309F4A2C064
:100DE0008091370190913801809002019090030129
:100DF000E0910001F09101019401881599052CF012
:100E00009F018E179F070CF49C01309338012093AB
:100E10003701092C000CAA08BB08032E000C440B58
:100E2000550B281939094A095B09ACEDB0E00E945D
:100E300070089F01FF0F440B550B281939094A0907
:100E40005B090E9451082D5D3F4F4F4F5F4F20932C
:100E50002E01233208F423E2822F90E09093890040
:100E60008093880090938B0080938A002093B30036
:100E700080910201909103014D96209137013091AC
:100E8000380182179307CCF08091320190913301A1
:100E9000813197424CF0109235011092330110923B
:100EA00032011BB810928000809132019091330181
:100EB0000196909333018093320160910201709109
:100EC0000301072E000C880B990B97FF23C00E948B
:100ED0002B0386E191E00E94DA026091000170919B
:100EE0000101072E000C880B990B97FF17C00E9479
:100EF0002B038BE191E00E94DA0260912E0170E0F9
:100F000090E080E04AE00E94E7028BE191E00E94DD
:100F1000DA0261CF4AE00E94E702DBCF4AE00E949A
:100F2000E702E7CF80913501811164C08FB7F89453
:100F300040913A0150913B0160913C0170913D011B
:100F40008FBF80912A0190912B01A0912C01B0912B
:100F50002D014A015B01881A990AAA0ABB0A20EAF4
:100F600082162FE09206A104B10490F02091340182
:100F700021110EC08056904FAF4FBF4F80932A0172
:100F800090932B01A0932C01B0932D01709234010A
:100F9000809134018823D1F180912A0190912B0115
:100FA000A0912C01B0912D01481B590B6A0B7B0BB2
:100FB000403D574061057105E8F08053984FAF4FB1
:100FC000BF4F80932A0190932B01A0932C01B093E3
:100FD0002D0160BE1092B000109280001BB885B148
:100FE000817385B9F0928900E092880084E690E0F0
:100FF0000E94B8020115110509F499CE0E94A601BC
:10100000882309F492CE0E9400008BCE60BE10921D
:10101000B000109280001BB815B8ECCFE2E4F1E00C
:101020001382128288EE93E0A0E0B0E0848395837F
:10103000A683B78388E091E09183808385EC90E07C
:101040009587848784EC90E09787868780EC90E092
:10105000918B808B81EC90E0938B828B82EC90E083
:10106000958B848B86EC90E0978B868B118E128EFD
:10107000138E148E0895F999FECF92BD81BDF89A12
:10108000992780B50895262FF999FECF1FBA92BDF2
:1010900081BD20BD0FB6F894FA9AF99A0FBE019659
:1010A0000895052E97FB1EF400940E94680857FDD2
:1010B00007D00E947B0807FC03D04EF40C9468080C
:1010C00050954095309521953F4F4F4F5F4F089574
:1010D00090958095709561957F4F8F4F9F4F0895A4
:1010E0000E949D08A59F900DB49F900DA49F800D18
:1010F000911D11240895A1E21A2EAA1BBB1BFD010C
:101100000DC0AA1FBB1FEE1FFF1FA217B307E407E6
:10111000F50720F0A21BB30BE40BF50B661F771F3E
:10112000881F991F1A9469F760957095809590951E
:101130009B01AC01BD01CF010895A29FB001B39FF7
:10114000C001A39F700D811D1124911DB29F700DD0
:10115000811D1124911D0895991B79E004C0991FE8
:10116000961708F0961B881F7A95C9F78095089501
:10117000EE0FFF1F0590F491E02D0994F894FFCF36
:10118000D007E80300000000DC013C0169012902EE
:0E1190009A0178018C0120202020000D0A0019
:00000001FF
