:100000000C9461000C9473000C9473000C947300B6
:100010000C9473000C9473000C9473000C94730094
:100020000C9473000C9473000C9473000C94730084
:100030000C9473000C9473000C9473000C94730074
:100040000C94B4010C9473000C9473000C94730022
:100050000C9473000C9473000C9473000C94FE01C8
:100060000C9473000C947300000000002300260021
:10007000290000000008000201000003040700003E
:1000800000000000000000000000250028002B00F8
:1000900000000000240027002A00040404040404D3
:1000A0000404020202020202030303030303010227
:1000B00004081020408001020408102001020408F6
:1000C000102011241FBECFEFD8E0DEBFCDBF21E04E
:1000D000A0E0B1E001C01D92AD30B207E1F70E948F
:1000E00053020C942D030C940000CF93DF9390E007
:1000F000FC01E255FF4F249186569F4FFC018491ED
:100100008823C1F090E0880F991FFC01E057FF4F52
:10011000C591D491FC01EA57FF4FA591B4919FB7C7
:10012000F8943881822F809583238883EC91E22B89
:10013000EC939FBFDF91CF91089590E0FC01EE58C2
:10014000FF4F2491FC01E255FF4F3491FC01E6562C
:10015000FF4FE491EE23C1F1222339F02330E9F07F
:1001600090F4213001F1223011F1F0E0EE0FFF1F89
:10017000E859FF4FA591B491EC91E32381E090E021
:1001800029F580E008952730A9F02830C9F02430FF
:1001900061F7809180008F7D03C0809180008F7710
:1001A00080938000E2CF84B58F7784BDDECF84B5A5
:1001B0008F7DFBCF8091B0008F778093B000D5CF3B
:1001C0008091B0008F7DF9CF80E090E008953FB737
:1001D000F8948091090190910A01A0910B01B091CE
:1001E0000C0126B5A89B05C02F3F19F00196A11D53
:1001F000B11D3FBFBA2FA92F982F8827BC01CD0171
:10020000620F711D811D911D42E0660F771F881FCF
:10021000991F4A95D1F708958F929F92AF92BF92FE
:10022000CF92DF92EF92FF920E94E7004B015C01B8
:1002300084E6C82ED12CE12CF12C0E94E70068192D
:1002400079098A099B09683E734081059105A8F3E5
:1002500021E0C21AD108E108F10888EE880E83E097
:10026000981EA11CB11CC114D104E104F10429F7AA
:10027000FF90EF90DF90CF90BF90AF909F908F90C6
:100280000895809101018230A1F128F4882359F06A
:100290008130D9F00895843009F44AC0C8F185301E
:1002A00009F456C008958BB1877D8BB95C9A109282
:1002B000800081E88093B00010927A0080E48093FF
:1002C0007B0083E080937C001FC08BB18F7C8BB957
:1002D0005B9A1092800081E88093B00010927A00BF
:1002E00080E480937B0082E080937C0080B78E7FE7
:1002F0000DC08BB18F7C8BB95B9A1092B00081E2FC
:100300008093800010927B0080B7836080BF089547
:100310008BB1877E8BB95D9A1092B00081E2809399
:10032000800010927A0080E480937B0083E0DCCF31
:100330008BB1877E8BB95D9A1092B00081E8809373
:10034000800010927A0080E480937B0082E0BACF34
:100350008BB1877D8BB95C9A1092B00081E8809355
:10036000800010927B00C2CF1F920F920FB60F92A7
:1003700011242F933F938F939F93AF93BF938091BB
:10038000050190910601A0910701B09108013091FB
:10039000040123E0230F2D3758F50196A11DB11D4F
:1003A000209304018093050190930601A093070117
:1003B000B09308018091090190910A01A0910B016D
:1003C000B0910C010196A11DB11D8093090190937C
:1003D0000A01A0930B01B0930C01BF91AF919F91C3
:1003E0008F913F912F910F900FBE0F901F901895F6
:1003F00026E8230F0296A11DB11DD2CF1F920F92A6
:100400000FB60F9211242F933F934F935F936F93E7
:100410007F938F939F93AF93BF93CF93EF93FF936C
:100420001092030110920201C09101014C2F417002
:1004300020910201309103012A303105C8F4442390
:1004400051F000B605FC0AC0215031093093030178
:100450002093020103C000B605FCF6CF8091020193
:100460009091030101969093030180930201E0CFE4
:100470000E94410181E08C0F66E00E94210390936D
:100480000101FF91EF91CF91BF91AF919F918F911A
:100490007F916F915F914F913F912F910F900FBE80
:1004A0000F901F901895789484B5826084BD84B5B0
:1004B000816084BD85B5826085BD85B5816085BD5F
:1004C00080916E00816080936E0010928100809117
:1004D000810082608093810080918100816080939F
:1004E0008100809180008160809380008091B100C4
:1004F00084608093B1008091B00081608093B000EF
:1005000080917A00846080937A0080917A00826082
:1005100080937A0080917A00816080937A00809144
:100520007A00806880937A001092C1008AB1886353
:100530008AB91BB884B18E6084B981E385B9109201
:10054000800081E0809381001092B0008093B10020
:1005500080E180BF8EE00E9475008FE00E947500F0
:1005600084E690E0909389008093880090938B00BC
:1005700080938A008093B30088E893E1909303010D
:100580008093020116E0C0910201D0910301C536AB
:10059000D105C0F0CE01880F991F880F991F0597CC
:1005A0000197F1F70E944101809101018F5F612F56
:1005B0000E942103909301016497D0930301C0939B
:1005C0000201E1CF84E68093000180B7886080BF9C
:1005D0008EE00E949D00892BC9F4809100018F3F1D
:1005E000A9F08F5F80930001823308F482E3282F03
:1005F00030E0309389002093880030938B00209363
:100600008A008093B3000E940C01E2CF8FE00E9429
:100610009D00892BE9F6809100018333C8F2815057
:1006200080930001282F30E03093890020938800C8
:1006300030938B0020938A008093B3000E940C01BA
:10064000E5CF991B79E004C0991F961708F0961B17
:0E065000881F7A95C9F780950895F894FFCF1A
:00000001FF
